:4000000000800020110000006D0400006D04000008B5044B1A6803F53F5302331A6000F045FA00BFFA46004010B5054C237833B9044B13B10448AFF300800123237010BD56
:400040007081FF1F00000000982B0000084B10B51BB108490848AFF300800848036803B910BD074B002BFBD0BDE81040184700BF000000007481FF1F982B0000C880FF1F2C
:4000800000000000704700BF08B562B6124800F0F7FA124800F0BAFB00F090FA00F05CFB0F4800F0C1FA0F4800F0BEFA0E4800F0BBFA0E4800F0B8FA0D4800F0B5FA0D48BD
:4000C00000F0B2FA0C4800F0AFFA0C4800F0ACFA0B4800F0A9FAFEE7E901000085000000A02B0000C42B0000D02B0000E42B0000FC2B0000102C0000242C0000302C000080
:40010000402C000008B5064800F08EFA054B1868002804DD01381860C0B200F0D3FA08BD502C00008C81FF1F08B5064800F07CFA054B1868092804DC01301860C0B200F04E
:40014000C1FA08BD642C00008C81FF1F08B5064800F06AFA012000F01BFB012000F024FB002000F02DFB08BD782C000008B5064800F05AFA012000F00BFB002000F014FB68
:40018000012000F01DFB08BD942C000008B5064800F04AFA012000F0FBFA012000F004FB012000F00DFB08BDB02C000008B5322813D004D8302813D031280BD008BD7128DF
:4001C00002D0772803D008BDFFF79CFF08BDFFF7ABFF08BDFFF7BAFF08BDFFF7C7FF08BDFFF7D4FF08BD00BF38B500F0FBF9044609E000F0F1F9054600F000FA2846FFF782
:40020000D5FF013CE4B2002CF3D138BDFEE700BFF0B40022174611E050F82760F3B226F0FF0608E001EB420511F812406D78A5550132013BDBB2002BF4D101371B2FEBD964
:40024000F0BC7047064B1B78DBB203F00701054A11701B09013213704422034B1A707047CF0100496E5800407658004008B50A46002100F020FB08BD38B53322264B1A8098
:400280001823264A137040F2DF1102321180023213700222224B1A7008224FF040231A70032103F5007319701E4B1B78DBB21E490B701E4B1A8041F25122023B1A800024DA
:4002C00019250CE01A4B1B7803F0010343EA440404F003044FF4F07000F0A6FA013D0DB1032CEFD115B90320FFF790FF114B4FF480721A8007221A7000220F490A704820A7
:40030000023108701A700222033B1A700B4A137843F00303137038BD80400040824000400043004008010049A146004022420040254200400440004006400040A243004093
:4003400008B500F0ADFA08BD38B572B6364A137843F00403137000240CE0344D630019194A0011462A44084691882858FFF77EFF0134E4B2082CF0D900240CE02B48A2000B
:4003800011194B000344B3F84020D96B986BFFF7D7FF0134E4B2012CF0D925494FF09040FFF736FF234A137843F0020313701032137843F0020313701F4C237843F0400343
:4003C0002370A2F58632513A137843F01003137008221A491A48FFF7B3FF0A2219491A48FFF7AEFF082219491948FFF7A9FF082218491948FFF7A4FF184A137843F00803D7
:400400001370174D61232B70FFF736FF81232B700122144B1A70FFF715FF0E2221461248FFF78EFF38BD00BFE8460040B82C00007000004803500140A04300401C040048E5
:400440000251004024040048C051004030040048125100403804004822510040224300400048004004000840B043004008B500F0EBF903680C2B00D1FEE7FEE708B5094B47
:400480001A681044084BC31AB3F5007F02DC054B186005E000F0D8F90C2303604FF0FF32104608BDCC80FF1FA081FF1F08B5104E104D16E029686B68AC68002204E051F8C8
:4004C000040B43F8040B0432A242F8D1E868002203E0002143F8041B04328242F9D11035013E002EE6D100F0B5F9FFF7CDFDFEE701000000542E000008B5104A104B1A6011
:40050000104A136843F40073136000230AE0032B03D80D4A52F8231000E00C490C4A42F8231001332F2BF2D90A4B1A780A4B1A70074A0A4B1A60FFF707FF08BD0004FA05E4
:400540000CED00E014ED00E0000000006D0400000080FF1FBC760040C080FF1F08ED00E07222074B1A702022013B1A7006225E3B1A70472210331A70002251331A7070472D
:400580008965004010B500F057F904460A4A137843F020031370013A137843F0100313700332137843F01003137000F0E3F8204600F046F910BD00BF9965004008B5054BB7
:4005C0001B7823B9FFF7CCFF0122024B1A70FFF7D9FF08BD9081FF1F014B1878704700BF49650040044B1B7813F0200F01D0012070470020704700BF68650040024B1B788F
:400600000BB1024B187070479081FF1F4B650040034B1B7813F0040FFAD1024B187070476B6500404B65004038B5074B1B782BB938BDFFF7EDFF0134A4B201E0054600249D
:40064000285D0028F5D138BD9081FF1F014B1B685864704708ED00E04001C0B2014B1870704700BF01E400E00222014B1A60704700E100E00222014B1A60704780E100E0C6
:4006800010B50446FFF7F6FF2046FFF7DFFF0720FFF7E2FFFFF7E8FF10BD00BF024A137843F080031370704778640040014B1870704700BF08640040014B1870704700BF7C
:4006C00048640040014B1870704700BF28640040014B1870704700BF88640040014B1878704700BF68640040014B1878704700BF5864004008B501E0FFF7F6FFFFF7EEFF6A
:4007000010F0100FF8D108BD10B5114A137803F0C00343F0090313700E4C237843F0010323700A20FFF7C2FF0A20FFF7C5FF0120FFF7C8FF0120FFF7CBFF00F07DF82378A6
:4007400043F01003237000F07BF8FFF7D3FF10BD786400409864004008B5054B1B7823B9FFF7D2FF0122024B1A70FFF797FF08BD9281FF1F054A137843F0010313701032BB
:40078000137843F001031370704700BFA2430040044A137803F0FE0300F0010018431070704700BF20510040044A137803F0BF03800100F040001843107070470051004037
:4007C000044A137803F07F03C001C0B218431070704700BF00510040014B1B681864704708ED00E04001C0B2014B1870704700BF00E400E00122014B1A60704700E100E09D
:400800000122014B1A60704780E100E010B50446FFF7F6FF2046FFF7DFFF0720FFF7E2FFFFF7E8FF10BD00BF0230800803D000BF01380046FCD17047EFF3108072B670479C
:4008400080F31088704700BF014B1868704700BF3081FF1F0E4B70B51E460E4C0025E41AA410A54204D056F8253098470135F8E702F0DEFA084B094C1E46E41AA4100025D4
:40088000A54204D056F8253098470135F8E770BD3C2E00003C2E00003C2E0000442E000010B5431E0A44914204D011F8014B03F8014FF8E710BD03460244934202D003F871
:4008C000011BFAE770472DE9F04788B0149F002B1E461299B8BF03F1004327F02007B6BF1E4600232D23462F1446109DDDF84CA00B7003D0452F03D1013501E0032300E0AA
:40090000022307AA049206AA03928DE828042246334600F0B9FB472F804602D1119BDB0728D5462F08EB050911D198F80030302B0AD1002200232046314602F0BDF818B95E
:40094000C5F10105CAF80050DAF800309944002200232046314602F0AFF808B9302202E0CDF81C9006E0079B994503D9591C07911A70F8E74046079B159AC8EB03031360EE
:4009800008B0BDE8F087034673B50029B8BF494203F8022BB4BF2D222B22092942701ADD0DF1070216460A2591FBF5F405FB1411092C01F1300102F8011D2146F4DC303181
:4009C000541E02F8011CB4421A460AD214F8012B03F8012BF7E71A463024214402F8024B5970101A02B070BD2DE9F04F91B00C46DDF8688016461F46054601F0DDF80368EB
:400A00001846099300F0AAFA00230E93D8F800300A90073323F0070303F1080294F81890D4F800B0C8F80020D3E90023C4E91223D4F84CA0D4F848802AF000430B934FF09E
:400A4000FF32A74B40460B9902F068F8A0B94FF0FF32A34B40460B9902F042F860B9002200234046514602F031F810B12D2384F843309C4B9C4A0AE042465346404651463F
:400A800002F04CF8002800F09281984B984AB9F1470F8CBF90469846032323612BF0040323604FF0000A3DE0B9F1670F00F08A81B9F1470F00F08681236001936368002147
:400AC0000DF13302059002920093424653460691CDF81090CDF80CE02846FFF7F4FE09F0DF03472B804600F08481B9F1650F0D9900F28D8101394A4604F150000D91FFF774
:400B000042FF0E9A82468318012A236100F37C812268D10700F178819DF8333013B12D2384F84330009733460FAA2146284600F09FF9013002D14FF0FF3096E123685A058A
:400B400001D4236965E0B9F1650F40F2D580D4E912010022002301F0AFFF78B30123654A31462846B8470130E5D00E9B0D9A9A420BDB2368D80708D423689B0740F1118166
:400B80004FF0000804F1190906E10A9B099A31462846B8470130CED04FF0000804F11A090E9B013B9845E7DA01234A4631462846B8470130BFD008F10108F1E70D9B002B0E
:400BC00029DC01234B4A31462846B8470130B2D00D9B23B90E9B13B92368D907CCD50A9B099A31462846B8470130A4D04FF0000904F11A0A0D9B5B42994509DA01235246A7
:400C000031462846B847013095D009F10109F1E70E9B4246A7E00E9AA36D9A42A8BF1A46002A914606DC4FF0000A29EAE97904F11A0B11E01346314642462846B8470130A9
:400C4000F1D178E701235A4631462846B84701303FF471AF0AF1010AA36DC9EB03029245F0DB08EB03090D9A0E9B9A420FDB2368DA070CD40E9B0D9A9844C9EB08089B1AB0
:400C80009845A8BF9846B8F1000F08DC0FE00A9B099A31462846B8470130EBD14BE743464A4631462846B84701303FF444AF4FF0000928EAE87804F11A0A09E00123524670
:400CC00031462846B84701303FF435AF09F101090D9A0E9B9B1AC8EB03039945EEDB4BE7FFFFEF7F062D00000A2D00000E2D0000122D0000162D00000E9A012A01DCDB0708
:400D000038D50123424631462846B84701303FF412AF0A9B099A31462846B84701303FF40AAFD4E912010022002301F0C5FE20B14FF0000804F11A090EE00E9B08F101021C
:400D4000013B19E001234A4631462846B84701303FF4F1AE08F101080E9B013B9845F1DB534604F1500231462846B84701307FF403AFE0E64246012331462846B847013072
:400D8000EED1D8E601234A4631462846B84701303FF4D1AE08F10108E3680F9A9B1A9845F0DBE0680F9B9842B8BF18465DE062680EA8531C0DF1340E4BF480637FF474AE24
:400DC000062201E012B90122626075E6002106910DF133018DE80C00236005904246CDF81090CDF80CE0029153462846FFF76BFD80460D9BD81C02DB626893421DDDA9F154
:400E000002095FFA89F970E60133236184E6B9F1660F14D10029636807DD216113B92268D2071DD501330B4419E013B92268D00701D5023313E0012311E04FF067090D9BC2
:400E40000E9A934205DB22682361D10708D5013305E0002BD4BFC3F102030123134423610D9B4FF0000AA36556E611B0BDE8F08F2DE9F04791461F460A698B680646934299
:400E8000B8BF1346C9F8003091F843200C46DDF8208012B10133C9F800302368990642BFD9F800300233C9F80030256815F0060510D104F1190A07E0012352463946304656
:400EC000C04701301AD00135E368D9F800209B1A9D42F1DB94F843302268003318BF012392060FD5E118302081F843005A1C94F845102244023382F8431003E04FF0FF30B6
:400F0000BDE8F08704F1430239463046C0470130F4D02268D9F80050E36802F00602042A08BF5D1B2269A3680CBF25EAE57500259342C4BF9B1AED184FF000091A344D45E4
:400F400009D00123224639463046C0470130D5D009F10109F3E70020BDE8F087034613F8012B002AFBD1181A013870472DE9F74F03690C6980469C427FDC013C01F1140702
:400F80004FEA840E00F1140606EB0E0357F82450019356F824300135B3FBF5F507EB0E09C5B34FF0000A3846B446D34650F8043B9AB205FB02A21B0C4FEA124A05FB03A35E
:400FC00092B2C2EB0B0BBCF800204FEA134A5A441FFA83FBDCF800308145CBEB134303EB224392B242EA03424FEA234B4CF8042BDCD256F80E306BB9019B043B9E421A46DA
:4010000002D3C8F8104005E01268043B002AF8D1013CF3E7404600F0E8FF00282BDB304601354FF0000E57F8042B036891B2C1EB0E0E120C99B27144C2EB134303EB214338
:4010400089B24FEA234EB94541EA034340F8043BE9D256F8242006EB840362B9043B9E421A4602D3C8F8104005E01268043B002AF8D1013CF3E7284600E0002003B0BDE8F3
:40108000F08F0000000000002DE9F04F456A95B08246219CCDE9022345B9102000F090FDCAF82400456085600560C560DAF82430196859B15A68012393404A608B605046CE
:4010C00000F0BBFDDAF8243000221A60039BA04A002BBDBF01232360039B0023BCBF23F000430393DDF80C80A8BF236028F000431B0D1B0593421DD142F20F73209A1360F4
:40110000029B43B9934A944BC8F31300002814BF1846104600E09048229B002B00F04685C37813B100F1080300E0C31C229A136000F03CBDDDE90245002200232046294689
:4011400001F0BAFC074658B1209A01231360229B002B00F01E8581481860013800F026BD12AB019313AB009322462B46504600F0B7FFC8F30A56049056B1C5F3130343F0EB
:401180007F51204641F44011A6F2FF3611971DE0139B129E1E4406F23243202B0ADD029A06F21240C3F1400322FA00F008FA03F3184304E0C3F12000029B03FA00F001F033
:4011C0009DF90123A1F1F871013E11930022644B01F056F858A3D3E9002301F005FA58A3D3E9002301F04EF8044630460D4601F095F955A3D3E9002301F0F6F902460B468A
:401200002046294601F03EF804460D4601F09CFC0022834600232046294601F057FC58B1584601F07BF902460B462046294601F043FC08B90BF1FF3BBBF1160F0DD8DDE948
:401240000223484901EBCB01D1E9000101F05CFC30B10BF1FF3B002300E00123109300E01090129B9E1B731E079343BFC3F10008002307934FF00008BBF1000F06DB079B0A
:40128000CDF82CB05B440793002705E00023CBEB0808CBF100070B931E9B092B28D8052BC4BF043B1E931E9BC8BF0025A3F10203D8BF0125032B20D8DFE803F0060E0204B9
:4012C000012302E0012308E000230A931F9B002B1DDD9946059321E000230A931F9B0BEB030909F10103012B0593B8BF012315E0012500231E930A9501E001230A934FF07D
:40130000FF390022CDF8149012231F9206E04FF001094B46CDF81490CDF87C90DAF8244000226260042101F114029A421CD86268490001326260F6E761436F63A787D23F59
:40134000B3C8608B288AC63FFB799F501344D33F0000F07F182D0000212D0000172D00000000F83F302D00006168504600F030FCDAF8243020601B680693059B0E2B00F2A2
:401380005B81002D00F05881DDE90234BBF1000FCDE90E3430DD9F4A0BF00F034FEA2B1502EBC303E80618CBCDE908340CD5DDE90E01994B05F00F05D3E9082301F03EFA07
:4013C0000324CDE9020100E00224934E6DB1E90708D5DDE90801D6E9002301F005F9CDE9080101346D100836F0E7DDE90823DDE9020101F023FA20E0CBF1000505B3DDE90E
:401400000E01844B05F00F0203EBC203D3E9002301F0EAF8CDE902017F4E2D110023022455B1EA0705D5D6E9002301F0DDF8013401236D100836F3E71BB1CDE9020100E08A
:401440000224109BE3B1DDE902560022734B2846314601F03BFB98B1059B8BB1B9F1000F40F3E6800BF1FF330893314600226C4B284601F0B9F80134CDE902014E4602E0F9
:40148000059ECDF820B0204601F048F8DDE9022301F0AAF8634B002200F0F4FEA1F1507304460C931D46D6B9DDE9020100225E4B00F0E6FE22460C9BCDE9020101F024FBBD
:4014C000002840F03F820C99224601F10043DDE9020101F0FBFA002840F02B82A8E00A9A4C4B711E002A49D003EBC103D3E9002300204E4901F0A2F922462B4600F0C0FEED
:40150000CDE90C01069CDDE9020101F01DFB054601F004F802460B46DDE9020100F0B0FEDDE90C23303504F8015BCDE9020101F0CDFA002840F01D83DDE902230020374996
:4015400000F09EFEDDE90C2301F0C0FA002840F0D180069BE31AB3426ADADDE90C0100222F4B01F041F80022CDE90C01DDE902012B4B01F039F8CDE90201C4E703EBC101CC
:401580002246D1E900012B4601F02EF8069BCDE90C011D469C19DDE9020101F0D5FA064600F0BCFF02460B46DDE9020100F068FE303605F8016BAC42CDE902014FF0000215
:4015C00022D11A4BDDE90C0100F05CFE02460B46DDE9020101F098FA002840F08B80DDE90C230020114900F04BFE02460B46DDE9020101F06BFAD8B114F8013C621E302B21
:4016000040F0B7821446F7E7054B00F0EDFFCDE90201C0E7302D0000082E00000000F03F0000244000001C40000014400000E03FDDE90E34CDE90234139B002B7CDBBBF1B8
:401640000E0F79DCAB4B03EBCB03D3E900671F9B002B14DA059B002B11DC40F06C810022A54B3046394600F0BFFFDDE9022301F041FA059D2E46002840F05F8165E1069C79
:40168000DDE9028932463B464046494601F0D6F801F05AFA054600F041FF32463B4600F0A3FF0B4602464946404600F0E9FD05F1300E069B04F801EBC3EB040E059B734568
:4016C0002DD102460B4600F0DDFD8046894602460B463046394601F0F9F978B942464B463046394601F0E8F9002800F04482EB0704D440E2DDF820B000E01C4614F8012C88
:40170000631E392A07D1069A9A42F6D1069930220BF1010B0A701A7801321A702BE20022764B00F061FF002200238046894601F0C3F90028A6D01EE20A9A002A2BD01E9A02
:40174000012A0ADC119A12B103F2334302E0129BC3F136033D46444613E0059B5D1EAF42BFBF0B9BEA1B9B180B93059BB6BF2F467D1B0025002BA7BF4446059BC3EB0804C1
:401780000023079A01211A4450469844079200F0F3FA064602E03D4644460A9E5CB1079B002B08DDA342A8BF2346079AC3EB0808E41AD31A0793002F1DDD0A9BABB18DB15A
:4017C00031462A46504600F071FB049A01460646504600F0DAFA04990890504600F02DFA089B04937A1B06D000E03A460499504600F05CFB04900121504600F0BDFA0B9B8B
:4018000005465BB31A460146504600F04FFB1E9B0546012B18DC029B83B9039BC3F3130373B9039B23F000473F0D3F054FB1079B08F1010801330793012702E0002700E03A
:40184000029F0B9B73B100E000272B6905EB8303186900F044FAC0F1200004E01E9B012BD9DD0B9F0120079B184410F01F0008D0C0F12003042B02DDC0F11C0002E006D0C6
:4018800018461C30079B8044034404440793B8F1000F05DD42460499504600F055FB0490079B002B05DD29461A46504600F04CFB0546109B23B32946049800F096FB0028FB
:4018C0001EDA00230A220499504600F0CDF90A9B0BF1FF3B0490002B00F05F81314600230A22504600F0C0F9B9F1000F06463FDC3BE000BF302D000000001440000024403A
:40190000059B002B2BDC1E9B022B28DDDDF81490B9F1000F11D129464B460522504600F0A3F901460546049800F05FFB00280CDC03E0354600E000252E461F9B069C6FEA79
:40194000030B09E03546DDF820B0069B069A5C1C312313700BF1010B05960026F7E00A9BDDF8149023B9069CB2E01E9B022BCFDC002C05DD31462246504600F0E5FA0646C3
:401980009FB17168504600F023F90446326906F10C01023292000C30FEF782FF01222146504600F0D1FA059000E00596029B069F03F00103079329460498FFF7D7FA3146F4
:4019C000044600F13008049800F00FFB059A02902946504600F025FBC36802463BB901460A90049800F001FB0A9A034600E00123114650460A9300F020F90A9B53B91E9ADB
:401A000042B9079A32B9B8F1390F2AD0029B002B1CDC1DE0029A002A04DB1BD11E9ACAB9079ABAB9002B13DD01220499504600F08BFA2946049000F0D8FA002803DC07D10D
:401A400018F0010F04D0B8F1390F0AD004F131087C1C0CE0002B07F101040BDDB8F1390F03D139233B70013756E008F1010887F800806CE0069B2746E31A4B4504F8018C42
:401A80003BD000230A220499504600F0EDF8059B04909E424FF00A024FF000033146504604D100F0E1F80646059084E700F0DCF8002306460A220599504600F0D5F8059047
:401AC00079E700230A220499504600F0CDF8049029460498FFF74AFA069B00F1300804F8018BE31A4B45ECDB069B0596B9F1010FACBF4B4401331F460026012204995046CB
:401B000000F022FA2946049000F06FFA002803DC15D118F0010F12D03C4614F8013C621E392B09D1069B934204D10BF1010B3123069A02E01446F0E70133137007E03C4653
:401B400014F8013C621E302B01D11446F8E72946504600F072F8059B6BB12EB19E4203D03146504600F069F80599504600F065F801E0DDF820B00499504600F05EF8002388
:401B8000209A23700BF101031360229B1BB11C6001E008480AE0069808E0B9F1000F3FF7E2AE1E9B022B7FF7DEAEB1E615B0BDE8F08F00BF162D0000004870473481FF1F04
:401BC000024B0146186800F0E7BA00BF3081FF1F70B5456A04460E463DB91020FFF7F0FF6062456085600560C560656AEB6843B1636ADB6853F8260078B1026843F82620B4
:401C000017E021220421204600F0B8FA636AE860DB68002BECD1002070BD012101FA06F56A1D9200204600F0A9FA0028F3D04660856000230361C36070BD70B5446A06461A
:401C40000D463CB91020FFF7BBFF7062446084600460C4603DB1736A6A68DB6853F82210296043F8225070BD2DE9F04106460C460D691F4601F1140E0023DEF80000013399
:401C800081B202FB0171000C0F0C02FB007089B201EB00419D424FEA10474EF8041BECDCD7B1A3689D4212DB616830460131FFF78FFF8046226904F10C01023292000C3041
:401CC000FEF7EEFD21463046FFF7B7FF444604EB850301355F6125612046BDE8F081030C1B0413B90004102300E0002310F07F4F04BF0002083310F0704F04BF00010433C6
:401D000010F0404F04BF80000233002803DB420003D5581C70471846704720207047036813F007020BD0D90722D49A074BBF5B089B08036003604CBF01200220704799B256
:401D400009B91B0C102213F0FF0F04BF1B0A0832190704BF1B090432990704BF9B080232D90702D45B0805D00132036010467047002070472020704710B50C460121FFF710
:401D800027FF01224461026110BD2DE9F74F14460A69236988469A42BEBF0B46A0461C46D8F81070D4F81090D8F80830D8F8041007EB09069E42C8BF0131FFF709FF00F15F
:401DC00014052B4605EB860C0022634502D243F8042BFAE704F1140208F1140102EB890301EB87070093009B0192934257D9B2F800B0BBF1000F23D08946AE464FF000080A
:401E000059F8044BBEF800A0A3B20BFB03A34FEA144ADEF8004043444FEA14480BFB0A84F24604EB13449BB243EA04434F454FEA14484AF8043B01D9D646E1E7CEF804805D
:401E4000019B0432B3F802A0BAF1000F21D02C4689462B684FF00008B9F800E0B4F802B09BB20AFB0EBEA346F04443EA08434BF8043B59F8043BB4F804E01B0C0AFB03E327
:401E80004F4503EB18434FEA134801D95C46E3E763600435A7E75CF8043D13B9013E002EF9DC066103B0BDE8F08F00002DE9F843154612F0030206460F4607D0214C013A2D
:401EC000002354F82220FFF7CFFE0746AD1036D0746A3CB91020FFF773FE7062446084600460C460D6F82480D8F808404CB940F271213046FFF740FF04460023C8F80800DF
:401F000003604FF00008EB070AD5394622463046FFF73BFF814639463046FFF78EFE4F466D100CD0206808B10446ECE7224621463046FFF72AFF2060C0F80080F4E738469A
:401F4000BDE8F883F82D00002DE9F0470C460746914626694FEA621A56444968A368751CAB4202DA01315B00FAE73846FFF730FE002380461A4600F11401534503DA41F858
:401F800023200133F9E72AEAEA73206901EB830319F01F0904F1140101EB800E14D0C9F1200C002208689A4600FA09F0024343F8042B51F8042B8E4522FA0CF2F2D8CAF8DA
:401FC000042042B1B51C06E0043B51F8042B8E4543F8042FF9D8013D3846C8F810502146FFF72BFE4046BDE8F08703690A6910B59B1A11D192001430143183180A4453F8BC
:40200000044D52F8041D8C4202D007D3012010BD9842F4D3002010BD184610BD4FF0FF3010BD2DE9F8430C460746114620461546FFF7DBFF061E08D131463846FFF7C8FD03
:40204000012303614661BDE8F883BCBF23462C4638466168BABF1D4601260026FFF7B8FD2B69C660266905F1140904F1140101EB860709EB830800F114054FF0000C51F8A4
:40208000042B59F8044B93B29C44A3B2240CC3EB0C03C4EB124202EB23429BB24FEA224CC84543EA02428E4645F8042BE7D8BE450ED25EF8041B8AB26244131403EB114381
:4020C00092B242EA03424FEA234C45F8042BEEE755F8043D0BB9013EFAE70661BDE8F8832DE9F3411C4601219046089E099DFFF76FFDC4F31302C4F30A5407460CB142F4D6
:4021000080120192B8F1000F19D002A840F8088DFFF705FE009B48B1019AC0F1200102FA01F10B43C2407B61019200E07B61019B002B14BF02210121BB61396107E001A8DA
:40214000FFF7EDFD019B01217B613961203034B1A4F2334404443460C0F1350009E0A0F2324007EB810330601869FFF7B8FDC0EB41102860384602B0BDE8F08138B502FB74
:4021800001F4214600F008F8054618B122460021FEF791FB284638BD70B5CD1C25F0030508350C2D38BF0C25002D064601DBA94202D90C23336046E000F05CF8234B1C6850
:4021C0001A462146A1B10B685B1B0ED40B2B03D90B60CC18CD501EE08C420BBF63684B681360636018BF0C4615E00C464968E9E7174C23681BB9304600F02CF82060294607
:40220000304600F027F8431C18D0C41C24F00304A0420DD12560304600F02DF804F10B00231D20F00700C31A0ED05A42E25070BD211A304600F00EF80130EBD10C233360A4
:40224000304600F018F8002070BD00BF9881FF1F9481FF1F38B5064C0023054608462360FEF70CF9431C02D1236803B12B6038BD9C81FF1F7047704781F0004102E000BF0D
:4022800083F0004330B54FEA41044FEA430594EA050F08BF90EA020F1FBF54EA000C55EA020C7FEA645C7FEA655C00F0E2804FEA5454D4EB5555B8BF6D420CDD2C4480EA53
:4022C000020281EA030382EA000083EA010180EA020281EA0303362D88BF30BD11F0004F4FEA01314FF4801C4CEA113102D0404261EB410113F0004F4FEA03334CEA1333E7
:4023000002D0524263EB430394EA050F00F0A780A4F10104D5F1200E0DDB02FA0EFC22FA05F2801841F1000103FA0EF2801843FA05F359410EE0A5F120050EF1200E012A3B
:4023400003FA0EFC28BF4CF0020C43FA05F3C01851EBE37101F0004507D54FF0000EDCF1000C7EEB00006EEB0101B1F5801F1BD3B1F5001F0CD349085FEA30004FEA3C0C6A
:4023800004F101044FEA445212F5800F80F09A80BCF1004F08BF5FEA500C50F1000041EB045141EA050130BD5FEA4C0C404141EB010111F4801FA4F10104E9D191F0000F14
:4023C00004BF01460020B1FA81F308BF2033A3F10B03B3F120020CDA0C3208DD02F1140CC2F10C0201FA0CF021FA02F10CE002F11402D8BFC2F1200C01FA02F120FA0CFCB5
:40240000DCBF41EA0C019040E41AA2BF01EB0451294330BD6FEA04041F3C1CDA0C340EDC04F11404C4F1200220FA04F001FA02F340EA030021FA04F345EA030130BDC4F12E
:402440000C04C4F1200220FA02F001FA04F340EA0300294630BD21FA04F0294630BD94F0000F83F4801306BF81F480110134013D4EE77FEA645C18BF7FEA655C29D094EAD2
:40248000050F08BF90EA020F05D054EA000C04BF1946104630BD91EA030F1EBF0021002030BD5FEA545C05D14000494128BF41F0004130BD14F580043CBF01F5801130BDBF
:4024C00001F0004545F0FE4141F470014FF0000030BD7FEA645C1ABF194610467FEA655C1CBF0B46024650EA013406BF52EA033591EA030F41F4002130BD00BF90F0000F45
:4025000004BF0021704730B54FF4806404F132044FF000054FF0000150E700BF90F0000F04BF0021704730B54FF4806404F1320410F0004548BF40424FF000013EE700BFFC
:4025400042004FEAE2014FEA31014FEA02701FBF12F07F4393F07F4F81F06051704792F0000F14BF93F07F4F704730B54FF4607401F0004521F0004120E700BF50EA010228
:4025800008BF704730B54FF000050AE050EA010208BF704730B511F0004502D5404261EB41014FF4806404F132045FEA915C3FF4DCAE4FF003025FEADC0C18BF03325FEAAE
:4025C000DC0C18BF033202EBDC02C2F1200300FA03FC20FA02F001FA03FE40EA0E0021FA02F11444C1E600BF70B54FF0FF0C4CF4E06C1CEA11541DBF1CEA135594EA0C0FF8
:4026000095EA0C0F00F0DEF82C4481EA030621EA4C5123EA4C5350EA013518BF52EA033541F4801143F4801338D0A0FB02CE4FF00005E1FB02E506F00042E0FB03E54FF003
:402640000006E1FB03569CF0000F18BF4EF0010EA4F1FF04B6F5007F64F5407404D25FEA4E0E6D4146EB060642EAC62141EA55514FEAC52040EA5E504FEACE2EB4F1FD0C6E
:4026800088BFBCF5E06F1ED8BEF1004F08BF5FEA500E50F1000041EB045170BD06F0004646EA010140EA020081EA0301B4EB5C04C2BFD4EB0C0541EA045170BD41F48011B6
:4026C0004FF0000E013C00F3AB8014F1360FDEBF002001F0004170BDC4F10004203C35DA0C341BDC04F11404C4F1200500FA05F320FA04F001FA05F240EA020001F0004239
:4027000021F0004110EBD37021FA04F642EB06015EEA430E08BF20EAD37070BDC4F10C04C4F1200500FA04F320FA05F001FA04F240EA020001F0004110EBD37041F1000187
:402740005EEA430E08BF20EAD37070BDC4F1200500FA05F24EEA020E20FA04F301FA05F243EA020321FA04F001F0004121FA04F220EA020000EBD3705EEA430E08BF20EA41
:40278000D37070BD94F0000F0FD101F00046400041EB010111F4801F08BF013CF7D041EA060195F0000F18BF704703F00046520043EB030313F4801F08BF013DF7D043EA70
:4027C0000603704794EA0C0F0CEA135518BF95EA0C0F0CD050EA410618BF52EA4306D1D181EA030101F000414FF0000070BD50EA410606BF1046194652EA430619D094EA62
:402800000C0F02D150EA013613D195EA0C0F05D152EA03361CBF104619460AD181EA030101F0004141F0FE4141F470014FF0000070BD41F0FE4141F4780170BD70B54FF033
:40284000FF0C4CF4E06C1CEA11541DBF1CEA135594EA0C0F95EA0C0F00F0A7F8A4EB050481EA030E52EA03354FEA013100F088804FEA03334FF0805545EA131343EA1263E5
:402880004FEA022245EA111545EA10654FEA00260EF000419D4208BF964244F1FD0404F5407402D25B084FEA3202B61A65EB03055B084FEA32024FF480104FF4002CB6EB44
:4028C000020E75EB030E22BFB61A754640EA0C005B084FEA3202B6EB020E75EB030E22BFB61A754640EA5C005B084FEA3202B6EB020E75EB030E22BFB61A754640EA9C00AD
:402900005B084FEA3202B6EB020E75EB030E22BFB61A754640EADC0055EA060E18D04FEA051545EA16754FEA06164FEAC30343EA52734FEAC2025FEA1C1CC0D111F4801FF2
:402940000BD141EA00014FF000004FF0004CB6E711F4801F04BF01430020B4F1FD0C88BFBCF5E06F3FF6AFAEB5EB030C04BFB6EB020C5FEA500C50F1000041EB045170BDE1
:402980000EF0004E4EEA113114EB5C04C2BFD4EB0C0541EA045170BD41F480114FF0000E013C90E645EA060E8DE60CEA135594EA0C0F08BF95EA0C0F3FF43BAF94EA0C0F6A
:4029C0000AD150EA01347FF434AF95EA0C0F7FF425AF104619462CE795EA0C0F06D152EA03353FF4FDAE1046194622E750EA410618BF52EA43067FF4C5AE50EA41047FF458
:402A00000DAF52EA43057FF4EBAE12E74FF0FF3C06E000BF4FF0010C02E000BF4FF0010C4DF804CD4FEA410C7FEA6C5C4FEA430C18BF7FEA6C5C1BD001B050EA410C0CBFAE
:402A400052EA430C91EA030F02BF90EA020F0020704710F1000F91EA030F58BF994208BF90422CBFD8176FEAE37040F0010070474FEA410C7FEA6C5C02D150EA013C07D1AC
:402A80004FEA430C7FEA6C5CD6D152EA033CD3D05DF8040B704700BF8446104662468C461946634600E000BF01B5FFF7B7FF002848BF10F1000F01BD4DF808EDFFF7F4FFFB
:402AC0000CBF012000205DF808FB00BF4DF808EDFFF7EAFF34BF012000205DF808FB00BF4DF808EDFFF7E0FF94BF012000205DF808FB00BF4DF808EDFFF7CEFF94BF012024
:402B000000205DF808FB00BF4DF808EDFFF7C4FF34BF012000205DF808FB00BF4FEA410C7FEA6C5C02D150EA013C0AD14FEA430C7FEA6C5C02D152EA033C02D14FF000002B
:402B400070474FF0010070474FEA410212F5001215D211D56FF47873B3EB625212D94FEAC12343F0004343EA505311F0004F23FA02F018BF404270474FF00000704750EAB8
:402B8000013005D111F0004008BF6FF0004070474FF00000704700BF000000000000000044432D4D6F746F722D50574D206170706C69636174696F6E20737461727465644A
:402BC0000D0A0000303A2053746F700D0A000000313A20447269766520666F7277617264730D0A00323A204472697665206261636B77617264730D0A00000000713A2044D5
:402C0000656372656173652073706565640D0A00773A20496E6372656173652073706565640D0A00363A20576176650D0A000000373A2066756C6C737465700D0A000000E0
:402C4000383A2068616C66737465700D0A00000044656372656173696E672073706565640D0A0000496E6372656173696E672073706565640D0A00005365742064697265DC
:402C80006374696F6E3A20666F7277617264730D0A00000053657420646972656374696F6E3A206261636B77617264730D0A000053746F700D0A0000004F00400C00305115
:402CC00000404000F0510040100000000140001000140140800400190140000300400140000A004C01400002005001402000000060520040940300480600801801409C0322
:402D0000004880004300494E4600696E66004E414E006E616E003000496E66696E697479004E614E00504F534958002E00000000000000000000F03F000000000000244089
:402D400000000000000059400000000000408F40000000000088C34000000000006AF8400000000080842E4100000000D01263410000000084D797410000000065CDCD4112
:402D8000000000205FA00242000000E876483742000000A2941A6D42000040E59C30A2420000901EC4BCD64200003426F56B0C430080E03779C3414300A0D88557347643D6
:402DC00000C84E676DC1AB43003D9160E458E143408CB5781DAF154450EFE2D6E41A4B4492D54D06CFF08044F64AE1C7022DB544B49DD9794378EA44050000001900000013
:402E00007D000000000000000080E03779C34143176E05B5B5B89346F5F93FE9034F384D321D30F94877825A3CBF737FDD4F1575F8B500BFF8BC08BC9E4670474D000000CA
:402E4000F9040000F8B500BFF8BC08BC9E46704729000000682E0000C880FF1FA8000000300000000000000000000000A081FF1F000000000000000000000000000000009A
:402E800000000000000000000000000000000000042D00000000000000000000000000000000000000000000000000000000000000000000000000000000000000000000E1
:402EC00000000000000000000000000000000000D080FF1F2B2D00002C2D00002C2D00002C2D00002C2D00002C2D00002C2D00002C2D00002C2D00002C2D0000FFFFFFFFEF
:402F0000FFFFFFFFFFFFFFFFFFFF0000000000000000000000000000000000000000000000000000000000000000000000000000000000000000000000000000000000009B
:402F40000000000000000000000000000000000000000000000000000000000000000000000000000000000000000000000000000000000000000000000000000000000051
:402F80000000000000000000000000000000000000000000000000000000000000000000000000000000000000000000000000000000000000000000000000000000000011
:402FC00000000000000000000000000000000000000000000000000000000000000000000000000000000000000000000000000000000000000000000000000000000000D1
:403000000000000000000000000000000000000000000000000000000000000000000000000000000000000000000000000000000000000000000000000000000000000090
:020000040003F7
:0200000480007A
:40000000024F00400252004001640040036500400105014001070140530801402E090140010B0140040C0140010D014001170140081801403B1901405B1A01403D1B01401F
:400040000340014002410140074201400443014002450140014601400247014003480140014C0140074D0140045001400151014001800A4B10021102880D883889728B0F10
:40008000EA08E602030116011702210426012F0631043302340135013E104030410645D046204710482A49FF4AFF4BFF4DA04F045018528054055604580459045A045B0415
:4000C0005C105D115F01604062C06440654066C068C06AC06CC06EC08144860487E389188A028C1D8DFF91809418951C97E29818991C9A059BE19C109DC0A005A1E7A21877
:40010000A318A408A704A81CA908AA01AD10AE02B201B31FB402B538B61CB7C0B808BA02BB28BE10D804D904DF01005409880B240F201060121A170418D019A01E082228DE
:4001400023062794284029412A102B202F8230023268370438843A023B203C0247044F2157135E085F8167407401831087408812C007C227C42FCA9FCC4FCE8FD040D220FA
:40018000D6D0D880E004AF4038803E4058045F011F40E2081E0136015418560458045B045C015F010066081009400AA00F0210A011401208184119011B241F802004220467
:4001C00023012985300232383880395440454808498452025A085F02652067816802691470A071C883048740894890809404968099A09B029D419E02A228A301A430A58856
:40020000A602A7A0C00FC28FC40FCA0BCC07CE0ED00DD20CD682D8B0E40401090306051F091F1002120414071512170518071D041F182C082E01320C33033403371C3828B8
:400240003E104002464049FF4A074BFF4C404D204EF04F055008580459045A045F01604061A86240632084608528868088618A968B018C5C8E8392A3930194619512968EAF
:4002800097209A1C9B069D40A138A305A521A718A919AA08AB22AD20B21AB33EB4F0B540B60FB701BAA8BF50C025C103C5EBC6C0C80BC9FFCAFFCBFFCEF0CF44D00CD4016C
:4002C000D804D904DA04DB04DF01E6C0EA40EB0205500610072009280B800C020D080F0810021520180419041B041D781F5420202244264027182E802F543244341035044D
:400300003682371039143A023F24400445284C024D014E804F04500251105202561057105D015E805F28880189108A82911496809C109E02A411B448C0E0C27EC441CAF048
:40034000CCFACE67D064D210D6F032203580CC309D80A6205B089B089D80A620AF08D640EA1086209D80A620E6405D80D6049D8081809D8085809D80E21081021040750211
:4003800088409902C408DE04E20100030C0310031C03000F80800000400000000100A000000203000202800003040C00030240000F040000100400000C00000008040000F5
:4003C000040000010C0003000F0000010F0010042002C001000002000000444442060500010C00E021FFFFFF62A0F0410C000000000002120404040400000001000000008D
:400400000000400200103010001010120000000000000000000000000000000000CFCF0000000000800040808000800000000000000B0B00000000000003030002000000FC
:40044000000000000000000000000000000000000000000000000000000000000000000000000000000000000000000000000000000000000000000000000000000000007C
:40048000000000000000000000000000000000000000000000000000000000000000000000000000000000000000000000000000000000000000000000000000000000003C
:4004C00000000000000000000000000000000000000000000000000000000000000000000000000000000000000000000000000000000000000000000000000000000000FC
:4005000000000000000000000000000000000000000000000000000000000000000000000000000000000000000000000000000000000000000000000000000000000000BB
:0200000490006A
:0400000000004005B7
:0200000490105A
:04000000BC90ACAF55
:0200000490303A
:020000000B8D66
:0200000490402A
:4000000000000000000000000000000000000000000000000000000000000000000000000000000000000000000000000000000000000000000000000000000000000000C0
:400040000000000000000000000000000000000000000000000000000000000000000000000000000000000000000000000000000000000000000000000000000000000080
:400080000000000000000000000000000000000000000000000000000000000000000000000000000000000000000000000000000000000000000000000000000000000040
:4000C0000000000000000000000000000000000000000000000000000000000000000000000000000000000000000000000000000000000000000000000000000000000000
:0200000490501A
:0C00000000012E16106900012E291BF6CD
:00000001FF